S00C0000554152542E73726563DC
S11300000C942A000C943F000C943F000C943F0085
S11300100C943F000C943F000C943F000C943F0060
S11300200C943F000C943F000C943F000C943F0050
S11300300C943F000C943F000C943F000C943F0040
S11300400C943F000C943F000C943F000C943F0030
S11300500C943F0011241FBECFE5D8E0DEBFCDBF16
S113006010E0A0E6B0E0E0ECF2E002C005900D92F2
S1130070A036B107D9F70E9427010C945E010C94B5
S11300800000683008F06FC04130A1F5813089F07C
S113009028F08230C9F0833011F108952AB381E049
S11300A090E002C0880F991F6A95E2F7822B8ABB01
S11300B0089527B381E090E002C0880F991F6A95E4
S11300C0E2F7822B87BB089524B381E090E002C05D
S11300D0880F991F6A95E2F7822B84BB089521B398
S11300E081E090E002C0880F991F6A95E2F7822BA5
S11300F081BB0895411137C0813091F028F08230DE
S1130100D9F0833029F108952AB381E090E002C048
S1130110880F991F6A95E2F7809582238ABB089518
S113012027B381E090E002C0880F991F6A95E2F737
S11301308095822387BB089524B381E090E002C0B8
S1130140880F991F6A95E2F78095822384BB0895EE
S113015021B381E090E002C0880F991F6A95E2F70D
S11301608095822381BB0895683008F06FC04130C8
S1130170A1F5813089F028F08230C9F0833011F183
S113018008952BB381E090E002C0880F991F6A950F
S1130190E2F7822B8BBB089528B381E090E002C084
S11301A0880F991F6A95E2F7822B88BB089525B3BF
S11301B081E090E002C0880F991F6A95E2F7822BD4
S11301C085BB089522B381E090E002C0880F991F97
S11301D06A95E2F7822B82BB0895411137C08130C2
S11301E091F028F08230D9F0833029F108952BB3AF
S11301F081E090E002C0880F991F6A95E2F780952C
S113020082238BBB089528B381E090E002C0880F5D
S1130210991F6A95E2F78095822388BB089525B3D8
S113022081E090E002C0880F991F6A95E2F78095FB
S1130230822385BB089522B381E090E002C0880F39
S1130240991F6A95E2F78095822382BB089541E065
S113025067E082E00E94410040E060E083E00E94A9
S1130260410041E061E083E00E9441000E944C01B2
S11302700E945A01813331F441E067E082E00E9438
S1130280B400F6CF0E945A01803391F740E067E052
S113029082E00E94B400ECCF86E880BD83E389B994
S11302A08AB188608AB98AB180618AB98AB18B7F40
S11302B08AB908955F9BFECF8CB10895F894FFCF5F
S9030000FC
