S0110000554152545F4D4355322E7372656361
S11300000C942A000C943F000C943F000C943F0085
S11300100C943F000C943F000C943F000C943F0060
S11300200C943F000C943F000C943F000C943F0050
S11300300C943F000C943F000C943F000C943F0040
S11300400C943F000C943F000C943F000C943F0030
S11300500C943F0011241FBECFE5D8E0DEBFCDBF16
S113006010E0A0E6B0E0ECE2F3E002C005900D92EF
S1130070A036B107D9F70E9458010C9494010C944E
S11300800000683008F06FC04130A1F5813089F07C
S113009028F08230C9F0833011F108952AB381E049
S11300A090E002C0880F991F6A95E2F7822B8ABB01
S11300B0089527B381E090E002C0880F991F6A95E4
S11300C0E2F7822B87BB089524B381E090E002C05D
S11300D0880F991F6A95E2F7822B84BB089521B398
S11300E081E090E002C0880F991F6A95E2F7822BA5
S11300F081BB0895411137C0813091F028F08230DE
S1130100D9F0833029F108952AB381E090E002C048
S1130110880F991F6A95E2F7809582238ABB089518
S113012027B381E090E002C0880F991F6A95E2F737
S11301308095822387BB089524B381E090E002C0B8
S1130140880F991F6A95E2F78095822384BB0895EE
S113015021B381E090E002C0880F991F6A95E2F70D
S11301608095822381BB0895683008F06FC04130C8
S1130170A1F5813089F028F08230C9F0833011F183
S113018008952BB381E090E002C0880F991F6A950F
S1130190E2F7822B8BBB089528B381E090E002C084
S11301A0880F991F6A95E2F7822B88BB089525B3BF
S11301B081E090E002C0880F991F6A95E2F7822BD4
S11301C085BB089522B381E090E002C0880F991F97
S11301D06A95E2F7822B82BB0895411137C08130C2
S11301E091F028F08230D9F0833029F108952BB3AF
S11301F081E090E002C0880F991F6A95E2F780952C
S113020082238BBB089528B381E090E002C0880F5D
S1130210991F6A95E2F78095822388BB089525B3D8
S113022081E090E002C0880F991F6A95E2F78095FB
S1130230822385BB089522B381E090E002C0880F39
S1130240991F6A95E2F78095822382BB08958130D5
S113025081F028F08230B9F08330F9F027C089B3F7
S113026090E002C0959587956A95E2F7982F917072
S11302701DC086B390E002C0959587956A95E2F714
S1130280982F917013C083B390E002C09595879521
S11302906A95E2F7982F917009C080B390E002C08C
S11302A0959587956A95E2F7982F9170892F08950F
S11302B040E060E081E00E94410041E060E081E0D4
S11302C00E94B40040E060E083E00E94410041E00D
S11302D061E083E00E9441000E94820160E081E0CD
S11302E00E942701813021F081E30E949001F6CF22
S11302F060E081E00E942701813081F780E30E9461
S11303009001ECCF86E880BD83E389B98AB1886027
S11303108AB98AB180618AB98AB18B7F8AB9089512
S10F03205D9BFECF8CB90895F894FFCFCC
S9030000FC
