:100000000C942A000C9434000C9434000C943400AA
:100010000C9434000C9434000C9434000C94340090
:100020000C9434000C9434000C9434000C94340080
:100030000C9434000C9434000C9434000C94340070
:100040000C9434000C9434000C9434000C94340060
:100050000C94340011241FBECFE5D8E0DEBFCDBF25
:100060000E944D010C94A4010C940000683008F02B
:100070006FC04130A1F5813089F028F08230C9F09D
:10008000833011F108952AB381E090E002C0880F17
:10009000991F6A95E2F7822B8ABB089527B381E006
:1000A00090E002C0880F991F6A95E2F7822B87BB08
:1000B000089524B381E090E002C0880F991F6A95EB
:1000C000E2F7822B84BB089521B381E090E002C067
:1000D000880F991F6A95E2F7822B81BB0895411121
:1000E00037C0813091F028F08230D9F0833029F187
:1000F00008952AB381E090E002C0880F991F6A95A5
:10010000E2F7809582238ABB089527B381E090E0CF
:1001100002C0880F991F6A95E2F78095822387BBFA
:10012000089524B381E090E002C0880F991F6A957A
:10013000E2F78095822384BB089521B381E090E0AB
:1001400002C0880F991F6A95E2F78095822381BBD0
:100150000895683008F06FC04130A1F5813089F012
:1001600028F08230C9F0833011F108952BB381E07B
:1001700090E002C0880F991F6A95E2F7822B8BBB33
:10018000089528B381E090E002C0880F991F6A9516
:10019000E2F7822B88BB089525B381E090E002C08E
:1001A000880F991F6A95E2F7822B85BB089522B3C9
:1001B00081E090E002C0880F991F6A95E2F7822BD8
:1001C00082BB0895411137C0813091F028F0823010
:1001D000D9F0833029F108952BB381E090E002C07B
:1001E000880F991F6A95E2F7809582238BBB08954B
:1001F00028B381E090E002C0880F991F6A95E2F76A
:100200008095822388BB089525B381E090E002C0E9
:10021000880F991F6A95E2F78095822385BB089520
:1002200022B381E090E002C0880F991F6A95E2F73F
:100230008095822382BB0895813081F028F082303E
:10024000B9F08330F9F027C089B390E002C09595EA
:1002500087956A95E2F7982F91701DC086B390E05C
:1002600002C0959587956A95E2F7982F917013C013
:1002700083B390E002C0959587956A95E2F7982F31
:10028000917009C080B390E002C0959587956A95FA
:10029000E2F7982F9170892F089540E060E081E0A7
:1002A0000E94360041E060E081E00E94A90041E048
:1002B00065E081E00E94360041E064E081E00E9458
:1002C000360040E066E081E00E94360041E067E0F1
:1002D00081E00E94360040E064E081E00E94A900D5
:1002E0000E94860160E081E00E941C01813021F0C3
:1002F00081E30E949F01F6CF60E081E00E941C0133
:10030000882381F380E30E949F01ECCF8DB180624E
:100310008DB98DB1877F8DB98DB18B7F8DB98EB140
:100320008E7F8EB98DB18E7F8DB98DB182608DB982
:100330008DB180618DB98DB180648DB908958FB90B
:0C034000779BFECF8FB10895F894FFCF9B
:00000001FF
